{
  "_format": "hh-sol-artifact-1",
  "contractName": "RousseauNFTs",
  "sourceName": "contracts/NFT.sol",
  "abi": [
    {
      "inputs": [],
      "stateMutability": "nonpayable",
      "type": "constructor"
    },
    {
      "anonymous": false,
      "inputs": [
        {
          "indexed": true,
          "internalType": "address",
          "name": "owner",
          "type": "address"
        },
        {
          "indexed": true,
          "internalType": "address",
          "name": "approved",
          "type": "address"
        },
        {
          "indexed": true,
          "internalType": "uint256",
          "name": "tokenId",
          "type": "uint256"
        }
      ],
      "name": "Approval",
      "type": "event"
    },
    {
      "anonymous": false,
      "inputs": [
        {
          "indexed": true,
          "internalType": "address",
          "name": "owner",
          "type": "address"
        },
        {
          "indexed": true,
          "internalType": "address",
          "name": "operator",
          "type": "address"
        },
        {
          "indexed": false,
          "internalType": "bool",
          "name": "approved",
          "type": "bool"
        }
      ],
      "name": "ApprovalForAll",
      "type": "event"
    },
    {
      "anonymous": false,
      "inputs": [
        {
          "indexed": true,
          "internalType": "address",
          "name": "previousOwner",
          "type": "address"
        },
        {
          "indexed": true,
          "internalType": "address",
          "name": "newOwner",
          "type": "address"
        }
      ],
      "name": "OwnershipTransferred",
      "type": "event"
    },
    {
      "anonymous": false,
      "inputs": [
        {
          "indexed": true,
          "internalType": "address",
          "name": "from",
          "type": "address"
        },
        {
          "indexed": true,
          "internalType": "address",
          "name": "to",
          "type": "address"
        },
        {
          "indexed": true,
          "internalType": "uint256",
          "name": "tokenId",
          "type": "uint256"
        }
      ],
      "name": "Transfer",
      "type": "event"
    },
    {
      "inputs": [
        {
          "internalType": "address",
          "name": "to",
          "type": "address"
        },
        {
          "internalType": "uint256",
          "name": "tokenId",
          "type": "uint256"
        }
      ],
      "name": "approve",
      "outputs": [],
      "stateMutability": "nonpayable",
      "type": "function"
    },
    {
      "inputs": [
        {
          "internalType": "address",
          "name": "owner",
          "type": "address"
        }
      ],
      "name": "balanceOf",
      "outputs": [
        {
          "internalType": "uint256",
          "name": "",
          "type": "uint256"
        }
      ],
      "stateMutability": "view",
      "type": "function"
    },
    {
      "inputs": [],
      "name": "baseTokenURI",
      "outputs": [
        {
          "internalType": "string",
          "name": "",
          "type": "string"
        }
      ],
      "stateMutability": "view",
      "type": "function"
    },
    {
      "inputs": [],
      "name": "count",
      "outputs": [
        {
          "internalType": "uint256",
          "name": "",
          "type": "uint256"
        }
      ],
      "stateMutability": "view",
      "type": "function"
    },
    {
      "inputs": [
        {
          "internalType": "uint256",
          "name": "tokenId",
          "type": "uint256"
        }
      ],
      "name": "getApproved",
      "outputs": [
        {
          "internalType": "address",
          "name": "",
          "type": "address"
        }
      ],
      "stateMutability": "view",
      "type": "function"
    },
    {
      "inputs": [
        {
          "internalType": "address",
          "name": "owner",
          "type": "address"
        },
        {
          "internalType": "address",
          "name": "operator",
          "type": "address"
        }
      ],
      "name": "isApprovedForAll",
      "outputs": [
        {
          "internalType": "bool",
          "name": "",
          "type": "bool"
        }
      ],
      "stateMutability": "view",
      "type": "function"
    },
    {
      "inputs": [
        {
          "internalType": "string",
          "name": "uri",
          "type": "string"
        }
      ],
      "name": "isContentOwned",
      "outputs": [
        {
          "internalType": "bool",
          "name": "",
          "type": "bool"
        }
      ],
      "stateMutability": "view",
      "type": "function"
    },
    {
      "inputs": [],
      "name": "name",
      "outputs": [
        {
          "internalType": "string",
          "name": "",
          "type": "string"
        }
      ],
      "stateMutability": "view",
      "type": "function"
    },
    {
      "inputs": [],
      "name": "owner",
      "outputs": [
        {
          "internalType": "address",
          "name": "",
          "type": "address"
        }
      ],
      "stateMutability": "view",
      "type": "function"
    },
    {
      "inputs": [
        {
          "internalType": "uint256",
          "name": "tokenId",
          "type": "uint256"
        }
      ],
      "name": "ownerOf",
      "outputs": [
        {
          "internalType": "address",
          "name": "",
          "type": "address"
        }
      ],
      "stateMutability": "view",
      "type": "function"
    },
    {
      "inputs": [
        {
          "internalType": "address",
          "name": "recipient",
          "type": "address"
        },
        {
          "internalType": "string",
          "name": "metadataURI",
          "type": "string"
        }
      ],
      "name": "payToMint",
      "outputs": [
        {
          "internalType": "uint256",
          "name": "",
          "type": "uint256"
        }
      ],
      "stateMutability": "payable",
      "type": "function"
    },
    {
      "inputs": [],
      "name": "renounceOwnership",
      "outputs": [],
      "stateMutability": "nonpayable",
      "type": "function"
    },
    {
      "inputs": [
        {
          "internalType": "address",
          "name": "to",
          "type": "address"
        },
        {
          "internalType": "string",
          "name": "uri",
          "type": "string"
        }
      ],
      "name": "safeMint",
      "outputs": [],
      "stateMutability": "nonpayable",
      "type": "function"
    },
    {
      "inputs": [
        {
          "internalType": "address",
          "name": "from",
          "type": "address"
        },
        {
          "internalType": "address",
          "name": "to",
          "type": "address"
        },
        {
          "internalType": "uint256",
          "name": "tokenId",
          "type": "uint256"
        }
      ],
      "name": "safeTransferFrom",
      "outputs": [],
      "stateMutability": "nonpayable",
      "type": "function"
    },
    {
      "inputs": [
        {
          "internalType": "address",
          "name": "from",
          "type": "address"
        },
        {
          "internalType": "address",
          "name": "to",
          "type": "address"
        },
        {
          "internalType": "uint256",
          "name": "tokenId",
          "type": "uint256"
        },
        {
          "internalType": "bytes",
          "name": "data",
          "type": "bytes"
        }
      ],
      "name": "safeTransferFrom",
      "outputs": [],
      "stateMutability": "nonpayable",
      "type": "function"
    },
    {
      "inputs": [
        {
          "internalType": "address",
          "name": "operator",
          "type": "address"
        },
        {
          "internalType": "bool",
          "name": "approved",
          "type": "bool"
        }
      ],
      "name": "setApprovalForAll",
      "outputs": [],
      "stateMutability": "nonpayable",
      "type": "function"
    },
    {
      "inputs": [
        {
          "internalType": "string",
          "name": "_baseTokenURI",
          "type": "string"
        }
      ],
      "name": "setBaseTokenURI",
      "outputs": [],
      "stateMutability": "nonpayable",
      "type": "function"
    },
    {
      "inputs": [
        {
          "internalType": "bytes4",
          "name": "interfaceId",
          "type": "bytes4"
        }
      ],
      "name": "supportsInterface",
      "outputs": [
        {
          "internalType": "bool",
          "name": "",
          "type": "bool"
        }
      ],
      "stateMutability": "view",
      "type": "function"
    },
    {
      "inputs": [],
      "name": "symbol",
      "outputs": [
        {
          "internalType": "string",
          "name": "",
          "type": "string"
        }
      ],
      "stateMutability": "view",
      "type": "function"
    },
    {
      "inputs": [
        {
          "internalType": "uint256",
          "name": "tokenId",
          "type": "uint256"
        }
      ],
      "name": "tokenURI",
      "outputs": [
        {
          "internalType": "string",
          "name": "",
          "type": "string"
        }
      ],
      "stateMutability": "view",
      "type": "function"
    },
    {
      "inputs": [
        {
          "internalType": "address",
          "name": "from",
          "type": "address"
        },
        {
          "internalType": "address",
          "name": "to",
          "type": "address"
        },
        {
          "internalType": "uint256",
          "name": "tokenId",
          "type": "uint256"
        }
      ],
      "name": "transferFrom",
      "outputs": [],
      "stateMutability": "nonpayable",
      "type": "function"
    },
    {
      "inputs": [
        {
          "internalType": "address",
          "name": "newOwner",
          "type": "address"
        }
      ],
      "name": "transferOwnership",
      "outputs": [],
      "stateMutability": "nonpayable",
      "type": "function"
    }
  ],
  "bytecode": "0x60806040523480156200001157600080fd5b506040518060400160405280600c81526020017f526f7573736561754e46547300000000000000000000000000000000000000008152506040518060400160405280600381526020017f4659520000000000000000000000000000000000000000000000000000000000815250816000908051906020019062000096929190620001f4565b508060019080519060200190620000af929190620001f4565b505050620000d2620000c66200012660201b60201c565b6200012e60201b60201c565b6040518060400160405280600781526020017f697066733a2f2f00000000000000000000000000000000000000000000000000815250600a90805190602001906200011f929190620001f4565b5062000309565b600033905090565b6000600760009054906101000a900473ffffffffffffffffffffffffffffffffffffffff16905081600760006101000a81548173ffffffffffffffffffffffffffffffffffffffff021916908373ffffffffffffffffffffffffffffffffffffffff1602179055508173ffffffffffffffffffffffffffffffffffffffff168173ffffffffffffffffffffffffffffffffffffffff167f8be0079c531659141344cd1fd0a4f28419497f9722a3daafe3b4186f6b6457e060405160405180910390a35050565b8280546200020290620002a4565b90600052602060002090601f01602090048101928262000226576000855562000272565b82601f106200024157805160ff191683800117855562000272565b8280016001018555821562000272579182015b828111156200027157825182559160200191906001019062000254565b5b50905062000281919062000285565b5090565b5b80821115620002a057600081600090555060010162000286565b5090565b60006002820490506001821680620002bd57607f821691505b60208210811415620002d457620002d3620002da565b5b50919050565b7f4e487b7100000000000000000000000000000000000000000000000000000000600052602260045260246000fd5b6131ef80620003196000396000f3fe6080604052600436106101355760003560e01c8063715018a6116100ab578063b88d4fde1161006f578063b88d4fde1461042b578063c87b56dd14610454578063d204c45e14610491578063d547cfb7146104ba578063e985e9c5146104e5578063f2fde38b1461052257610135565b8063715018a6146103585780638da5cb5b1461036f57806395d89b411461039a5780639f1cabc6146103c5578063a22cb4651461040257610135565b806323b872dd116100fd57806323b872dd1461023357806330176e131461025c57806342842e0e14610285578063615fd9e2146102ae5780636352211e146102de57806370a082311461031b57610135565b806301ffc9a71461013a57806306661abd1461017757806306fdde03146101a2578063081812fc146101cd578063095ea7b31461020a575b600080fd5b34801561014657600080fd5b50610161600480360381019061015c9190612348565b61054b565b60405161016e9190612783565b60405180910390f35b34801561018357600080fd5b5061018c61062d565b60405161019991906129a0565b60405180910390f35b3480156101ae57600080fd5b506101b761063e565b6040516101c4919061279e565b60405180910390f35b3480156101d957600080fd5b506101f460048036038101906101ef91906123db565b6106d0565b604051610201919061271c565b60405180910390f35b34801561021657600080fd5b50610231600480360381019061022c919061230c565b610716565b005b34801561023f57600080fd5b5061025a600480360381019061025591906121b2565b61082e565b005b34801561026857600080fd5b50610283600480360381019061027e919061239a565b61088e565b005b34801561029157600080fd5b506102ac60048036038101906102a791906121b2565b6108a8565b005b6102c860048036038101906102c391906122b8565b6108c8565b6040516102d591906129a0565b60405180910390f35b3480156102ea57600080fd5b50610305600480360381019061030091906123db565b6109a7565b604051610312919061271c565b60405180910390f35b34801561032757600080fd5b50610342600480360381019061033d919061214d565b610a59565b60405161034f91906129a0565b60405180910390f35b34801561036457600080fd5b5061036d610b11565b005b34801561037b57600080fd5b50610384610b25565b604051610391919061271c565b60405180910390f35b3480156103a657600080fd5b506103af610b4f565b6040516103bc919061279e565b60405180910390f35b3480156103d157600080fd5b506103ec60048036038101906103e7919061239a565b610be1565b6040516103f99190612783565b60405180910390f35b34801561040e57600080fd5b506104296004803603810190610424919061227c565b610c57565b005b34801561043757600080fd5b50610452600480360381019061044d9190612201565b610c6d565b005b34801561046057600080fd5b5061047b600480360381019061047691906123db565b610ccf565b604051610488919061279e565b60405180910390f35b34801561049d57600080fd5b506104b860048036038101906104b391906122b8565b610ce1565b005b3480156104c657600080fd5b506104cf610d77565b6040516104dc919061279e565b60405180910390f35b3480156104f157600080fd5b5061050c60048036038101906105079190612176565b610e05565b6040516105199190612783565b60405180910390f35b34801561052e57600080fd5b506105496004803603810190610544919061214d565b610e99565b005b60007f80ac58cd000000000000000000000000000000000000000000000000000000007bffffffffffffffffffffffffffffffffffffffffffffffffffffffff1916827bffffffffffffffffffffffffffffffffffffffffffffffffffffffff1916148061061657507f5b5e139f000000000000000000000000000000000000000000000000000000007bffffffffffffffffffffffffffffffffffffffffffffffffffffffff1916827bffffffffffffffffffffffffffffffffffffffffffffffffffffffff1916145b80610626575061062582610f1d565b5b9050919050565b60006106396008610f87565b905090565b60606000805461064d90612bf6565b80601f016020809104026020016040519081016040528092919081815260200182805461067990612bf6565b80156106c65780601f1061069b576101008083540402835291602001916106c6565b820191906000526020600020905b8154815290600101906020018083116106a957829003601f168201915b5050505050905090565b60006106db82610f95565b6004600083815260200190815260200160002060009054906101000a900473ffffffffffffffffffffffffffffffffffffffff169050919050565b6000610721826109a7565b90508073ffffffffffffffffffffffffffffffffffffffff168373ffffffffffffffffffffffffffffffffffffffff161415610792576040517f08c379a000000000000000000000000000000000000000000000000000000000815260040161078990612940565b60405180910390fd5b8073ffffffffffffffffffffffffffffffffffffffff166107b1610fe0565b73ffffffffffffffffffffffffffffffffffffffff1614806107e057506107df816107da610fe0565b610e05565b5b61081f576040517f08c379a0000000000000000000000000000000000000000000000000000000008152600401610816906128c0565b60405180910390fd5b6108298383610fe8565b505050565b61083f610839610fe0565b826110a1565b61087e576040517f08c379a000000000000000000000000000000000000000000000000000000000815260040161087590612960565b60405180910390fd5b610889838383611136565b505050565b80600a90805190602001906108a4929190611f71565b5050565b6108c383838360405180602001604052806000815250610c6d565b505050565b600066b1a2bc2ec50000341015610914576040517f08c379a000000000000000000000000000000000000000000000000000000000815260040161090b90612980565b60405180910390fd5b60006109206008610f87565b905061092c600861139d565b3360098460405161093d91906126e1565b908152602001604051809103902060006101000a81548173ffffffffffffffffffffffffffffffffffffffff021916908373ffffffffffffffffffffffffffffffffffffffff16021790555061099384826113b3565b61099d818461158d565b8091505092915050565b6000806002600084815260200190815260200160002060009054906101000a900473ffffffffffffffffffffffffffffffffffffffff169050600073ffffffffffffffffffffffffffffffffffffffff168173ffffffffffffffffffffffffffffffffffffffff161415610a50576040517f08c379a0000000000000000000000000000000000000000000000000000000008152600401610a4790612920565b60405180910390fd5b80915050919050565b60008073ffffffffffffffffffffffffffffffffffffffff168273ffffffffffffffffffffffffffffffffffffffff161415610aca576040517f08c379a0000000000000000000000000000000000000000000000000000000008152600401610ac190612880565b60405180910390fd5b600360008373ffffffffffffffffffffffffffffffffffffffff1673ffffffffffffffffffffffffffffffffffffffff168152602001908152602001600020549050919050565b610b19611601565b610b23600061167f565b565b6000600760009054906101000a900473ffffffffffffffffffffffffffffffffffffffff16905090565b606060018054610b5e90612bf6565b80601f0160208091040260200160405190810160405280929190818152602001828054610b8a90612bf6565b8015610bd75780601f10610bac57610100808354040283529160200191610bd7565b820191906000526020600020905b815481529060010190602001808311610bba57829003601f168201915b5050505050905090565b60003373ffffffffffffffffffffffffffffffffffffffff16600983604051610c0a91906126e1565b908152602001604051809103902060009054906101000a900473ffffffffffffffffffffffffffffffffffffffff1673ffffffffffffffffffffffffffffffffffffffff16149050919050565b610c69610c62610fe0565b8383611745565b5050565b610c7e610c78610fe0565b836110a1565b610cbd576040517f08c379a0000000000000000000000000000000000000000000000000000000008152600401610cb490612960565b60405180910390fd5b610cc9848484846118b2565b50505050565b6060610cda8261190e565b9050919050565b610ce9611601565b6000610cf56008610f87565b9050610d01600861139d565b610d0b8382611a21565b610d15818361158d565b33600983604051610d2691906126e1565b908152602001604051809103902060006101000a81548173ffffffffffffffffffffffffffffffffffffffff021916908373ffffffffffffffffffffffffffffffffffffffff160217905550505050565b600a8054610d8490612bf6565b80601f0160208091040260200160405190810160405280929190818152602001828054610db090612bf6565b8015610dfd5780601f10610dd257610100808354040283529160200191610dfd565b820191906000526020600020905b815481529060010190602001808311610de057829003601f168201915b505050505081565b6000600560008473ffffffffffffffffffffffffffffffffffffffff1673ffffffffffffffffffffffffffffffffffffffff16815260200190815260200160002060008373ffffffffffffffffffffffffffffffffffffffff1673ffffffffffffffffffffffffffffffffffffffff16815260200190815260200160002060009054906101000a900460ff16905092915050565b610ea1611601565b600073ffffffffffffffffffffffffffffffffffffffff168173ffffffffffffffffffffffffffffffffffffffff161415610f11576040517f08c379a0000000000000000000000000000000000000000000000000000000008152600401610f08906127e0565b60405180910390fd5b610f1a8161167f565b50565b60007f01ffc9a7000000000000000000000000000000000000000000000000000000007bffffffffffffffffffffffffffffffffffffffffffffffffffffffff1916827bffffffffffffffffffffffffffffffffffffffffffffffffffffffff1916149050919050565b600081600001549050919050565b610f9e81611a3f565b610fdd576040517f08c379a0000000000000000000000000000000000000000000000000000000008152600401610fd490612920565b60405180910390fd5b50565b600033905090565b816004600083815260200190815260200160002060006101000a81548173ffffffffffffffffffffffffffffffffffffffff021916908373ffffffffffffffffffffffffffffffffffffffff160217905550808273ffffffffffffffffffffffffffffffffffffffff1661105b836109a7565b73ffffffffffffffffffffffffffffffffffffffff167f8c5be1e5ebec7d5bd14f71427d1e84f3dd0314c0f7b2291e5b200ac8c7c3b92560405160405180910390a45050565b6000806110ad836109a7565b90508073ffffffffffffffffffffffffffffffffffffffff168473ffffffffffffffffffffffffffffffffffffffff1614806110ef57506110ee8185610e05565b5b8061112d57508373ffffffffffffffffffffffffffffffffffffffff16611115846106d0565b73ffffffffffffffffffffffffffffffffffffffff16145b91505092915050565b8273ffffffffffffffffffffffffffffffffffffffff16611156826109a7565b73ffffffffffffffffffffffffffffffffffffffff16146111ac576040517f08c379a00000000000000000000000000000000000000000000000000000000081526004016111a390612800565b60405180910390fd5b600073ffffffffffffffffffffffffffffffffffffffff168273ffffffffffffffffffffffffffffffffffffffff16141561121c576040517f08c379a000000000000000000000000000000000000000000000000000000000815260040161121390612840565b60405180910390fd5b611227838383611aab565b611232600082610fe8565b6001600360008573ffffffffffffffffffffffffffffffffffffffff1673ffffffffffffffffffffffffffffffffffffffff16815260200190815260200160002060008282546112829190612b0c565b925050819055506001600360008473ffffffffffffffffffffffffffffffffffffffff1673ffffffffffffffffffffffffffffffffffffffff16815260200190815260200160002060008282546112d99190612a85565b92505081905550816002600083815260200190815260200160002060006101000a81548173ffffffffffffffffffffffffffffffffffffffff021916908373ffffffffffffffffffffffffffffffffffffffff160217905550808273ffffffffffffffffffffffffffffffffffffffff168473ffffffffffffffffffffffffffffffffffffffff167fddf252ad1be2c89b69c2b068fc378daa952ba7f163c4a11628f55a4df523b3ef60405160405180910390a4611398838383611ab0565b505050565b6001816000016000828254019250508190555050565b600073ffffffffffffffffffffffffffffffffffffffff168273ffffffffffffffffffffffffffffffffffffffff161415611423576040517f08c379a000000000000000000000000000000000000000000000000000000000815260040161141a906128e0565b60405180910390fd5b61142c81611a3f565b1561146c576040517f08c379a000000000000000000000000000000000000000000000000000000000815260040161146390612820565b60405180910390fd5b61147860008383611aab565b6001600360008473ffffffffffffffffffffffffffffffffffffffff1673ffffffffffffffffffffffffffffffffffffffff16815260200190815260200160002060008282546114c89190612a85565b92505081905550816002600083815260200190815260200160002060006101000a81548173ffffffffffffffffffffffffffffffffffffffff021916908373ffffffffffffffffffffffffffffffffffffffff160217905550808273ffffffffffffffffffffffffffffffffffffffff16600073ffffffffffffffffffffffffffffffffffffffff167fddf252ad1be2c89b69c2b068fc378daa952ba7f163c4a11628f55a4df523b3ef60405160405180910390a461158960008383611ab0565b5050565b61159682611a3f565b6115d5576040517f08c379a00000000000000000000000000000000000000000000000000000000081526004016115cc906128a0565b60405180910390fd5b806006600084815260200190815260200160002090805190602001906115fc929190611f71565b505050565b611609610fe0565b73ffffffffffffffffffffffffffffffffffffffff16611627610b25565b73ffffffffffffffffffffffffffffffffffffffff161461167d576040517f08c379a000000000000000000000000000000000000000000000000000000000815260040161167490612900565b60405180910390fd5b565b6000600760009054906101000a900473ffffffffffffffffffffffffffffffffffffffff16905081600760006101000a81548173ffffffffffffffffffffffffffffffffffffffff021916908373ffffffffffffffffffffffffffffffffffffffff1602179055508173ffffffffffffffffffffffffffffffffffffffff168173ffffffffffffffffffffffffffffffffffffffff167f8be0079c531659141344cd1fd0a4f28419497f9722a3daafe3b4186f6b6457e060405160405180910390a35050565b8173ffffffffffffffffffffffffffffffffffffffff168373ffffffffffffffffffffffffffffffffffffffff1614156117b4576040517f08c379a00000000000000000000000000000000000000000000000000000000081526004016117ab90612860565b60405180910390fd5b80600560008573ffffffffffffffffffffffffffffffffffffffff1673ffffffffffffffffffffffffffffffffffffffff16815260200190815260200160002060008473ffffffffffffffffffffffffffffffffffffffff1673ffffffffffffffffffffffffffffffffffffffff16815260200190815260200160002060006101000a81548160ff0219169083151502179055508173ffffffffffffffffffffffffffffffffffffffff168373ffffffffffffffffffffffffffffffffffffffff167f17307eab39ab6107e8899845ad3d59bd9653f200f220920489ca2b5937696c31836040516118a59190612783565b60405180910390a3505050565b6118bd848484611136565b6118c984848484611ab5565b611908576040517f08c379a00000000000000000000000000000000000000000000000000000000081526004016118ff906127c0565b60405180910390fd5b50505050565b606061191982610f95565b600060066000848152602001908152602001600020805461193990612bf6565b80601f016020809104026020016040519081016040528092919081815260200182805461196590612bf6565b80156119b25780601f10611987576101008083540402835291602001916119b2565b820191906000526020600020905b81548152906001019060200180831161199557829003601f168201915b5050505050905060006119c3611c4c565b90506000815114156119d9578192505050611a1c565b600082511115611a0e5780826040516020016119f69291906126f8565b60405160208183030381529060405292505050611a1c565b611a1784611cde565b925050505b919050565b611a3b828260405180602001604052806000815250611d46565b5050565b60008073ffffffffffffffffffffffffffffffffffffffff166002600084815260200190815260200160002060009054906101000a900473ffffffffffffffffffffffffffffffffffffffff1673ffffffffffffffffffffffffffffffffffffffff1614159050919050565b505050565b505050565b6000611ad68473ffffffffffffffffffffffffffffffffffffffff16611da1565b15611c3f578373ffffffffffffffffffffffffffffffffffffffff1663150b7a02611aff610fe0565b8786866040518563ffffffff1660e01b8152600401611b219493929190612737565b602060405180830381600087803b158015611b3b57600080fd5b505af1925050508015611b6c57506040513d601f19601f82011682018060405250810190611b699190612371565b60015b611bef573d8060008114611b9c576040519150601f19603f3d011682016040523d82523d6000602084013e611ba1565b606091505b50600081511415611be7576040517f08c379a0000000000000000000000000000000000000000000000000000000008152600401611bde906127c0565b60405180910390fd5b805181602001fd5b63150b7a0260e01b7bffffffffffffffffffffffffffffffffffffffffffffffffffffffff1916817bffffffffffffffffffffffffffffffffffffffffffffffffffffffff191614915050611c44565b600190505b949350505050565b6060600a8054611c5b90612bf6565b80601f0160208091040260200160405190810160405280929190818152602001828054611c8790612bf6565b8015611cd45780601f10611ca957610100808354040283529160200191611cd4565b820191906000526020600020905b815481529060010190602001808311611cb757829003601f168201915b5050505050905090565b6060611ce982610f95565b6000611cf3611c4c565b90506000815111611d135760405180602001604052806000815250611d3e565b80611d1d84611dc4565b604051602001611d2e9291906126f8565b6040516020818303038152906040525b915050919050565b611d5083836113b3565b611d5d6000848484611ab5565b611d9c576040517f08c379a0000000000000000000000000000000000000000000000000000000008152600401611d93906127c0565b60405180910390fd5b505050565b6000808273ffffffffffffffffffffffffffffffffffffffff163b119050919050565b60606000821415611e0c576040518060400160405280600181526020017f30000000000000000000000000000000000000000000000000000000000000008152509050611f6c565b600082905060005b60008214611e3e578080611e2790612c59565b915050600a82611e379190612adb565b9150611e14565b60008167ffffffffffffffff811115611e80577f4e487b7100000000000000000000000000000000000000000000000000000000600052604160045260246000fd5b6040519080825280601f01601f191660200182016040528015611eb25781602001600182028036833780820191505090505b5090505b60008514611f6557600182611ecb9190612b0c565b9150600a85611eda9190612ca2565b6030611ee69190612a85565b60f81b818381518110611f22577f4e487b7100000000000000000000000000000000000000000000000000000000600052603260045260246000fd5b60200101907effffffffffffffffffffffffffffffffffffffffffffffffffffffffffffff1916908160001a905350600a85611f5e9190612adb565b9450611eb6565b8093505050505b919050565b828054611f7d90612bf6565b90600052602060002090601f016020900481019282611f9f5760008555611fe6565b82601f10611fb857805160ff1916838001178555611fe6565b82800160010185558215611fe6579182015b82811115611fe5578251825591602001919060010190611fca565b5b509050611ff39190611ff7565b5090565b5b80821115612010576000816000905550600101611ff8565b5090565b6000612027612022846129e0565b6129bb565b90508281526020810184848401111561203f57600080fd5b61204a848285612bb4565b509392505050565b600061206561206084612a11565b6129bb565b90508281526020810184848401111561207d57600080fd5b612088848285612bb4565b509392505050565b60008135905061209f8161315d565b92915050565b6000813590506120b481613174565b92915050565b6000813590506120c98161318b565b92915050565b6000815190506120de8161318b565b92915050565b600082601f8301126120f557600080fd5b8135612105848260208601612014565b91505092915050565b600082601f83011261211f57600080fd5b813561212f848260208601612052565b91505092915050565b600081359050612147816131a2565b92915050565b60006020828403121561215f57600080fd5b600061216d84828501612090565b91505092915050565b6000806040838503121561218957600080fd5b600061219785828601612090565b92505060206121a885828601612090565b9150509250929050565b6000806000606084860312156121c757600080fd5b60006121d586828701612090565b93505060206121e686828701612090565b92505060406121f786828701612138565b9150509250925092565b6000806000806080858703121561221757600080fd5b600061222587828801612090565b945050602061223687828801612090565b935050604061224787828801612138565b925050606085013567ffffffffffffffff81111561226457600080fd5b612270878288016120e4565b91505092959194509250565b6000806040838503121561228f57600080fd5b600061229d85828601612090565b92505060206122ae858286016120a5565b9150509250929050565b600080604083850312156122cb57600080fd5b60006122d985828601612090565b925050602083013567ffffffffffffffff8111156122f657600080fd5b6123028582860161210e565b9150509250929050565b6000806040838503121561231f57600080fd5b600061232d85828601612090565b925050602061233e85828601612138565b9150509250929050565b60006020828403121561235a57600080fd5b6000612368848285016120ba565b91505092915050565b60006020828403121561238357600080fd5b6000612391848285016120cf565b91505092915050565b6000602082840312156123ac57600080fd5b600082013567ffffffffffffffff8111156123c657600080fd5b6123d28482850161210e565b91505092915050565b6000602082840312156123ed57600080fd5b60006123fb84828501612138565b91505092915050565b61240d81612b40565b82525050565b61241c81612b52565b82525050565b600061242d82612a42565b6124378185612a58565b9350612447818560208601612bc3565b61245081612d8f565b840191505092915050565b600061246682612a4d565b6124708185612a69565b9350612480818560208601612bc3565b61248981612d8f565b840191505092915050565b600061249f82612a4d565b6124a98185612a7a565b93506124b9818560208601612bc3565b80840191505092915050565b60006124d2603283612a69565b91506124dd82612da0565b604082019050919050565b60006124f5602683612a69565b915061250082612def565b604082019050919050565b6000612518602583612a69565b915061252382612e3e565b604082019050919050565b600061253b601c83612a69565b915061254682612e8d565b602082019050919050565b600061255e602483612a69565b915061256982612eb6565b604082019050919050565b6000612581601983612a69565b915061258c82612f05565b602082019050919050565b60006125a4602983612a69565b91506125af82612f2e565b604082019050919050565b60006125c7602e83612a69565b91506125d282612f7d565b604082019050919050565b60006125ea603e83612a69565b91506125f582612fcc565b604082019050919050565b600061260d602083612a69565b91506126188261301b565b602082019050919050565b6000612630602083612a69565b915061263b82613044565b602082019050919050565b6000612653601883612a69565b915061265e8261306d565b602082019050919050565b6000612676602183612a69565b915061268182613096565b604082019050919050565b6000612699602e83612a69565b91506126a4826130e5565b604082019050919050565b60006126bc600f83612a69565b91506126c782613134565b602082019050919050565b6126db81612baa565b82525050565b60006126ed8284612494565b915081905092915050565b60006127048285612494565b91506127108284612494565b91508190509392505050565b60006020820190506127316000830184612404565b92915050565b600060808201905061274c6000830187612404565b6127596020830186612404565b61276660408301856126d2565b81810360608301526127788184612422565b905095945050505050565b60006020820190506127986000830184612413565b92915050565b600060208201905081810360008301526127b8818461245b565b905092915050565b600060208201905081810360008301526127d9816124c5565b9050919050565b600060208201905081810360008301526127f9816124e8565b9050919050565b600060208201905081810360008301526128198161250b565b9050919050565b600060208201905081810360008301526128398161252e565b9050919050565b6000602082019050818103600083015261285981612551565b9050919050565b6000602082019050818103600083015261287981612574565b9050919050565b6000602082019050818103600083015261289981612597565b9050919050565b600060208201905081810360008301526128b9816125ba565b9050919050565b600060208201905081810360008301526128d9816125dd565b9050919050565b600060208201905081810360008301526128f981612600565b9050919050565b6000602082019050818103600083015261291981612623565b9050919050565b6000602082019050818103600083015261293981612646565b9050919050565b6000602082019050818103600083015261295981612669565b9050919050565b600060208201905081810360008301526129798161268c565b9050919050565b60006020820190508181036000830152612999816126af565b9050919050565b60006020820190506129b560008301846126d2565b92915050565b60006129c56129d6565b90506129d18282612c28565b919050565b6000604051905090565b600067ffffffffffffffff8211156129fb576129fa612d60565b5b612a0482612d8f565b9050602081019050919050565b600067ffffffffffffffff821115612a2c57612a2b612d60565b5b612a3582612d8f565b9050602081019050919050565b600081519050919050565b600081519050919050565b600082825260208201905092915050565b600082825260208201905092915050565b600081905092915050565b6000612a9082612baa565b9150612a9b83612baa565b9250827fffffffffffffffffffffffffffffffffffffffffffffffffffffffffffffffff03821115612ad057612acf612cd3565b5b828201905092915050565b6000612ae682612baa565b9150612af183612baa565b925082612b0157612b00612d02565b5b828204905092915050565b6000612b1782612baa565b9150612b2283612baa565b925082821015612b3557612b34612cd3565b5b828203905092915050565b6000612b4b82612b8a565b9050919050565b60008115159050919050565b60007fffffffff0000000000000000000000000000000000000000000000000000000082169050919050565b600073ffffffffffffffffffffffffffffffffffffffff82169050919050565b6000819050919050565b82818337600083830152505050565b60005b83811015612be1578082015181840152602081019050612bc6565b83811115612bf0576000848401525b50505050565b60006002820490506001821680612c0e57607f821691505b60208210811415612c2257612c21612d31565b5b50919050565b612c3182612d8f565b810181811067ffffffffffffffff82111715612c5057612c4f612d60565b5b80604052505050565b6000612c6482612baa565b91507fffffffffffffffffffffffffffffffffffffffffffffffffffffffffffffffff821415612c9757612c96612cd3565b5b600182019050919050565b6000612cad82612baa565b9150612cb883612baa565b925082612cc857612cc7612d02565b5b828206905092915050565b7f4e487b7100000000000000000000000000000000000000000000000000000000600052601160045260246000fd5b7f4e487b7100000000000000000000000000000000000000000000000000000000600052601260045260246000fd5b7f4e487b7100000000000000000000000000000000000000000000000000000000600052602260045260246000fd5b7f4e487b7100000000000000000000000000000000000000000000000000000000600052604160045260246000fd5b6000601f19601f8301169050919050565b7f4552433732313a207472616e7366657220746f206e6f6e20455243373231526560008201527f63656976657220696d706c656d656e7465720000000000000000000000000000602082015250565b7f4f776e61626c653a206e6577206f776e657220697320746865207a65726f206160008201527f6464726573730000000000000000000000000000000000000000000000000000602082015250565b7f4552433732313a207472616e736665722066726f6d20696e636f72726563742060008201527f6f776e6572000000000000000000000000000000000000000000000000000000602082015250565b7f4552433732313a20746f6b656e20616c7265616479206d696e74656400000000600082015250565b7f4552433732313a207472616e7366657220746f20746865207a65726f2061646460008201527f7265737300000000000000000000000000000000000000000000000000000000602082015250565b7f4552433732313a20617070726f766520746f2063616c6c657200000000000000600082015250565b7f4552433732313a2061646472657373207a65726f206973206e6f74206120766160008201527f6c6964206f776e65720000000000000000000000000000000000000000000000602082015250565b7f45524337323155524953746f726167653a2055524920736574206f66206e6f6e60008201527f6578697374656e7420746f6b656e000000000000000000000000000000000000602082015250565b7f4552433732313a20617070726f76652063616c6c6572206973206e6f7420746f60008201527f6b656e206f776e6572206e6f7220617070726f76656420666f7220616c6c0000602082015250565b7f4552433732313a206d696e7420746f20746865207a65726f2061646472657373600082015250565b7f4f776e61626c653a2063616c6c6572206973206e6f7420746865206f776e6572600082015250565b7f4552433732313a20696e76616c696420746f6b656e2049440000000000000000600082015250565b7f4552433732313a20617070726f76616c20746f2063757272656e74206f776e6560008201527f7200000000000000000000000000000000000000000000000000000000000000602082015250565b7f4552433732313a2063616c6c6572206973206e6f7420746f6b656e206f776e6560008201527f72206e6f7220617070726f766564000000000000000000000000000000000000602082015250565b7f4e65656420746f20706179207570210000000000000000000000000000000000600082015250565b61316681612b40565b811461317157600080fd5b50565b61317d81612b52565b811461318857600080fd5b50565b61319481612b5e565b811461319f57600080fd5b50565b6131ab81612baa565b81146131b657600080fd5b5056fea26469706673582212202106c50ae3cb5e48bfb6da26a5e707d885f48cf9a6e8b67675bcdd872e7512eb64736f6c63430008040033",
  "linkReferences": {},
  "deployedLinkReferences": {}
}