{
  "_format": "hh-sol-artifact-1",
  "contractName": "RousseauNFTs",
  "sourceName": "contracts/NFT.sol",
  "abi": [
    {
      "inputs": [],
      "stateMutability": "nonpayable",
      "type": "constructor"
    },
    {
      "anonymous": false,
      "inputs": [
        {
          "indexed": true,
          "internalType": "address",
          "name": "owner",
          "type": "address"
        },
        {
          "indexed": true,
          "internalType": "address",
          "name": "approved",
          "type": "address"
        },
        {
          "indexed": true,
          "internalType": "uint256",
          "name": "tokenId",
          "type": "uint256"
        }
      ],
      "name": "Approval",
      "type": "event"
    },
    {
      "anonymous": false,
      "inputs": [
        {
          "indexed": true,
          "internalType": "address",
          "name": "owner",
          "type": "address"
        },
        {
          "indexed": true,
          "internalType": "address",
          "name": "operator",
          "type": "address"
        },
        {
          "indexed": false,
          "internalType": "bool",
          "name": "approved",
          "type": "bool"
        }
      ],
      "name": "ApprovalForAll",
      "type": "event"
    },
    {
      "anonymous": false,
      "inputs": [
        {
          "indexed": true,
          "internalType": "address",
          "name": "previousOwner",
          "type": "address"
        },
        {
          "indexed": true,
          "internalType": "address",
          "name": "newOwner",
          "type": "address"
        }
      ],
      "name": "OwnershipTransferred",
      "type": "event"
    },
    {
      "anonymous": false,
      "inputs": [
        {
          "indexed": true,
          "internalType": "address",
          "name": "from",
          "type": "address"
        },
        {
          "indexed": true,
          "internalType": "address",
          "name": "to",
          "type": "address"
        },
        {
          "indexed": true,
          "internalType": "uint256",
          "name": "tokenId",
          "type": "uint256"
        }
      ],
      "name": "Transfer",
      "type": "event"
    },
    {
      "inputs": [
        {
          "internalType": "address",
          "name": "to",
          "type": "address"
        },
        {
          "internalType": "uint256",
          "name": "tokenId",
          "type": "uint256"
        }
      ],
      "name": "approve",
      "outputs": [],
      "stateMutability": "nonpayable",
      "type": "function"
    },
    {
      "inputs": [
        {
          "internalType": "address",
          "name": "owner",
          "type": "address"
        }
      ],
      "name": "balanceOf",
      "outputs": [
        {
          "internalType": "uint256",
          "name": "",
          "type": "uint256"
        }
      ],
      "stateMutability": "view",
      "type": "function"
    },
    {
      "inputs": [],
      "name": "baseTokenURI",
      "outputs": [
        {
          "internalType": "string",
          "name": "",
          "type": "string"
        }
      ],
      "stateMutability": "view",
      "type": "function"
    },
    {
      "inputs": [],
      "name": "count",
      "outputs": [
        {
          "internalType": "uint256",
          "name": "",
          "type": "uint256"
        }
      ],
      "stateMutability": "view",
      "type": "function"
    },
    {
      "inputs": [
        {
          "internalType": "uint256",
          "name": "tokenId",
          "type": "uint256"
        }
      ],
      "name": "getApproved",
      "outputs": [
        {
          "internalType": "address",
          "name": "",
          "type": "address"
        }
      ],
      "stateMutability": "view",
      "type": "function"
    },
    {
      "inputs": [
        {
          "internalType": "string",
          "name": "uri",
          "type": "string"
        }
      ],
      "name": "getOwner",
      "outputs": [
        {
          "internalType": "address",
          "name": "",
          "type": "address"
        }
      ],
      "stateMutability": "view",
      "type": "function"
    },
    {
      "inputs": [
        {
          "internalType": "string",
          "name": "uri",
          "type": "string"
        }
      ],
      "name": "getOwnerTest",
      "outputs": [
        {
          "internalType": "address",
          "name": "",
          "type": "address"
        }
      ],
      "stateMutability": "view",
      "type": "function"
    },
    {
      "inputs": [],
      "name": "getSender",
      "outputs": [
        {
          "internalType": "address",
          "name": "",
          "type": "address"
        }
      ],
      "stateMutability": "view",
      "type": "function"
    },
    {
      "inputs": [
        {
          "internalType": "address",
          "name": "owner",
          "type": "address"
        },
        {
          "internalType": "address",
          "name": "operator",
          "type": "address"
        }
      ],
      "name": "isApprovedForAll",
      "outputs": [
        {
          "internalType": "bool",
          "name": "",
          "type": "bool"
        }
      ],
      "stateMutability": "view",
      "type": "function"
    },
    {
      "inputs": [
        {
          "internalType": "string",
          "name": "uri",
          "type": "string"
        }
      ],
      "name": "isContentOwned",
      "outputs": [
        {
          "internalType": "bool",
          "name": "",
          "type": "bool"
        }
      ],
      "stateMutability": "view",
      "type": "function"
    },
    {
      "inputs": [],
      "name": "name",
      "outputs": [
        {
          "internalType": "string",
          "name": "",
          "type": "string"
        }
      ],
      "stateMutability": "view",
      "type": "function"
    },
    {
      "inputs": [],
      "name": "owner",
      "outputs": [
        {
          "internalType": "address",
          "name": "",
          "type": "address"
        }
      ],
      "stateMutability": "view",
      "type": "function"
    },
    {
      "inputs": [
        {
          "internalType": "uint256",
          "name": "tokenId",
          "type": "uint256"
        }
      ],
      "name": "ownerOf",
      "outputs": [
        {
          "internalType": "address",
          "name": "",
          "type": "address"
        }
      ],
      "stateMutability": "view",
      "type": "function"
    },
    {
      "inputs": [
        {
          "internalType": "address",
          "name": "recipient",
          "type": "address"
        },
        {
          "internalType": "string",
          "name": "metadataURI",
          "type": "string"
        }
      ],
      "name": "payToMint",
      "outputs": [
        {
          "internalType": "uint256",
          "name": "",
          "type": "uint256"
        }
      ],
      "stateMutability": "payable",
      "type": "function"
    },
    {
      "inputs": [],
      "name": "renounceOwnership",
      "outputs": [],
      "stateMutability": "nonpayable",
      "type": "function"
    },
    {
      "inputs": [
        {
          "internalType": "address",
          "name": "to",
          "type": "address"
        },
        {
          "internalType": "string",
          "name": "uri",
          "type": "string"
        }
      ],
      "name": "safeMint",
      "outputs": [],
      "stateMutability": "nonpayable",
      "type": "function"
    },
    {
      "inputs": [
        {
          "internalType": "address",
          "name": "from",
          "type": "address"
        },
        {
          "internalType": "address",
          "name": "to",
          "type": "address"
        },
        {
          "internalType": "uint256",
          "name": "tokenId",
          "type": "uint256"
        }
      ],
      "name": "safeTransferFrom",
      "outputs": [],
      "stateMutability": "nonpayable",
      "type": "function"
    },
    {
      "inputs": [
        {
          "internalType": "address",
          "name": "from",
          "type": "address"
        },
        {
          "internalType": "address",
          "name": "to",
          "type": "address"
        },
        {
          "internalType": "uint256",
          "name": "tokenId",
          "type": "uint256"
        },
        {
          "internalType": "bytes",
          "name": "data",
          "type": "bytes"
        }
      ],
      "name": "safeTransferFrom",
      "outputs": [],
      "stateMutability": "nonpayable",
      "type": "function"
    },
    {
      "inputs": [
        {
          "internalType": "address",
          "name": "operator",
          "type": "address"
        },
        {
          "internalType": "bool",
          "name": "approved",
          "type": "bool"
        }
      ],
      "name": "setApprovalForAll",
      "outputs": [],
      "stateMutability": "nonpayable",
      "type": "function"
    },
    {
      "inputs": [
        {
          "internalType": "string",
          "name": "_baseTokenURI",
          "type": "string"
        }
      ],
      "name": "setBaseTokenURI",
      "outputs": [],
      "stateMutability": "nonpayable",
      "type": "function"
    },
    {
      "inputs": [
        {
          "internalType": "bytes4",
          "name": "interfaceId",
          "type": "bytes4"
        }
      ],
      "name": "supportsInterface",
      "outputs": [
        {
          "internalType": "bool",
          "name": "",
          "type": "bool"
        }
      ],
      "stateMutability": "view",
      "type": "function"
    },
    {
      "inputs": [],
      "name": "symbol",
      "outputs": [
        {
          "internalType": "string",
          "name": "",
          "type": "string"
        }
      ],
      "stateMutability": "view",
      "type": "function"
    },
    {
      "inputs": [
        {
          "internalType": "uint256",
          "name": "tokenId",
          "type": "uint256"
        }
      ],
      "name": "tokenURI",
      "outputs": [
        {
          "internalType": "string",
          "name": "",
          "type": "string"
        }
      ],
      "stateMutability": "view",
      "type": "function"
    },
    {
      "inputs": [
        {
          "internalType": "address",
          "name": "from",
          "type": "address"
        },
        {
          "internalType": "address",
          "name": "to",
          "type": "address"
        },
        {
          "internalType": "uint256",
          "name": "tokenId",
          "type": "uint256"
        }
      ],
      "name": "transferFrom",
      "outputs": [],
      "stateMutability": "nonpayable",
      "type": "function"
    },
    {
      "inputs": [
        {
          "internalType": "address",
          "name": "newOwner",
          "type": "address"
        }
      ],
      "name": "transferOwnership",
      "outputs": [],
      "stateMutability": "nonpayable",
      "type": "function"
    }
  ],
  "bytecode": "0x60806040523480156200001157600080fd5b506040518060400160405280600c81526020017f526f7573736561754e46547300000000000000000000000000000000000000008152506040518060400160405280600381526020017f4659520000000000000000000000000000000000000000000000000000000000815250816000908051906020019062000096929190620001f4565b508060019080519060200190620000af929190620001f4565b505050620000d2620000c66200012660201b60201c565b6200012e60201b60201c565b6040518060400160405280600781526020017f697066733a2f2f00000000000000000000000000000000000000000000000000815250600b90805190602001906200011f929190620001f4565b5062000309565b600033905090565b6000600760009054906101000a900473ffffffffffffffffffffffffffffffffffffffff16905081600760006101000a81548173ffffffffffffffffffffffffffffffffffffffff021916908373ffffffffffffffffffffffffffffffffffffffff1602179055508173ffffffffffffffffffffffffffffffffffffffff168173ffffffffffffffffffffffffffffffffffffffff167f8be0079c531659141344cd1fd0a4f28419497f9722a3daafe3b4186f6b6457e060405160405180910390a35050565b8280546200020290620002a4565b90600052602060002090601f01602090048101928262000226576000855562000272565b82601f106200024157805160ff191683800117855562000272565b8280016001018555821562000272579182015b828111156200027157825182559160200191906001019062000254565b5b50905062000281919062000285565b5090565b5b80821115620002a057600081600090555060010162000286565b5090565b60006002820490506001821680620002bd57607f821691505b60208210811415620002d457620002d3620002da565b5b50919050565b7f4e487b7100000000000000000000000000000000000000000000000000000000600052602260045260246000fd5b61341780620003196000396000f3fe6080604052600436106101665760003560e01c8063677d659b116100d1578063a22cb4651161008a578063d204c45e11610064578063d204c45e14610567578063d547cfb714610590578063e985e9c5146105bb578063f2fde38b146105f857610166565b8063a22cb465146104d8578063b88d4fde14610501578063c87b56dd1461052a57610166565b8063677d659b146103b457806370a08231146103f1578063715018a61461042e5780638da5cb5b1461044557806395d89b41146104705780639f1cabc61461049b57610166565b806330176e131161012357806330176e131461028d57806342842e0e146102b65780634aaf4a12146102df5780635e01eb5a1461031c578063615fd9e2146103475780636352211e1461037757610166565b806301ffc9a71461016b57806306661abd146101a857806306fdde03146101d3578063081812fc146101fe578063095ea7b31461023b57806323b872dd14610264575b600080fd5b34801561017757600080fd5b50610192600480360381019061018d9190612570565b610621565b60405161019f91906129ab565b60405180910390f35b3480156101b457600080fd5b506101bd610703565b6040516101ca9190612bc8565b60405180910390f35b3480156101df57600080fd5b506101e8610714565b6040516101f591906129c6565b60405180910390f35b34801561020a57600080fd5b5061022560048036038101906102209190612603565b6107a6565b6040516102329190612944565b60405180910390f35b34801561024757600080fd5b50610262600480360381019061025d9190612534565b6107ec565b005b34801561027057600080fd5b5061028b600480360381019061028691906123da565b610904565b005b34801561029957600080fd5b506102b460048036038101906102af91906125c2565b610964565b005b3480156102c257600080fd5b506102dd60048036038101906102d891906123da565b61097e565b005b3480156102eb57600080fd5b50610306600480360381019061030191906125c2565b61099e565b6040516103139190612944565b60405180910390f35b34801561032857600080fd5b506103316109e6565b60405161033e9190612944565b60405180910390f35b610361600480360381019061035c91906124e0565b6109ee565b60405161036e9190612bc8565b60405180910390f35b34801561038357600080fd5b5061039e60048036038101906103999190612603565b610b2a565b6040516103ab9190612944565b60405180910390f35b3480156103c057600080fd5b506103db60048036038101906103d691906125c2565b610bdc565b6040516103e89190612944565b60405180910390f35b3480156103fd57600080fd5b5061041860048036038101906104139190612375565b610c24565b6040516104259190612bc8565b60405180910390f35b34801561043a57600080fd5b50610443610cdc565b005b34801561045157600080fd5b5061045a610cf0565b6040516104679190612944565b60405180910390f35b34801561047c57600080fd5b50610485610d1a565b60405161049291906129c6565b60405180910390f35b3480156104a757600080fd5b506104c260048036038101906104bd91906125c2565b610dac565b6040516104cf91906129ab565b60405180910390f35b3480156104e457600080fd5b506104ff60048036038101906104fa91906124a4565b610e22565b005b34801561050d57600080fd5b5061052860048036038101906105239190612429565b610e38565b005b34801561053657600080fd5b50610551600480360381019061054c9190612603565b610e9a565b60405161055e91906129c6565b60405180910390f35b34801561057357600080fd5b5061058e600480360381019061058991906124e0565b610eac565b005b34801561059c57600080fd5b506105a5610f9f565b6040516105b291906129c6565b60405180910390f35b3480156105c757600080fd5b506105e260048036038101906105dd919061239e565b61102d565b6040516105ef91906129ab565b60405180910390f35b34801561060457600080fd5b5061061f600480360381019061061a9190612375565b6110c1565b005b60007f80ac58cd000000000000000000000000000000000000000000000000000000007bffffffffffffffffffffffffffffffffffffffffffffffffffffffff1916827bffffffffffffffffffffffffffffffffffffffffffffffffffffffff191614806106ec57507f5b5e139f000000000000000000000000000000000000000000000000000000007bffffffffffffffffffffffffffffffffffffffffffffffffffffffff1916827bffffffffffffffffffffffffffffffffffffffffffffffffffffffff1916145b806106fc57506106fb82611145565b5b9050919050565b600061070f60086111af565b905090565b60606000805461072390612e1e565b80601f016020809104026020016040519081016040528092919081815260200182805461074f90612e1e565b801561079c5780601f106107715761010080835404028352916020019161079c565b820191906000526020600020905b81548152906001019060200180831161077f57829003601f168201915b5050505050905090565b60006107b1826111bd565b6004600083815260200190815260200160002060009054906101000a900473ffffffffffffffffffffffffffffffffffffffff169050919050565b60006107f782610b2a565b90508073ffffffffffffffffffffffffffffffffffffffff168373ffffffffffffffffffffffffffffffffffffffff161415610868576040517f08c379a000000000000000000000000000000000000000000000000000000000815260040161085f90612b68565b60405180910390fd5b8073ffffffffffffffffffffffffffffffffffffffff16610887611208565b73ffffffffffffffffffffffffffffffffffffffff1614806108b657506108b5816108b0611208565b61102d565b5b6108f5576040517f08c379a00000000000000000000000000000000000000000000000000000000081526004016108ec90612ae8565b60405180910390fd5b6108ff8383611210565b505050565b61091561090f611208565b826112c9565b610954576040517f08c379a000000000000000000000000000000000000000000000000000000000815260040161094b90612b88565b60405180910390fd5b61095f83838361135e565b505050565b80600b908051906020019061097a929190612199565b5050565b61099983838360405180602001604052806000815250610e38565b505050565b60006009826040516109b09190612909565b908152602001604051809103902060009054906101000a900473ffffffffffffffffffffffffffffffffffffffff169050919050565b600033905090565b600066b1a2bc2ec50000341015610a3a576040517f08c379a0000000000000000000000000000000000000000000000000000000008152600401610a3190612ba8565b60405180910390fd5b6000610a4660086111af565b9050610a5260086115c5565b83600984604051610a639190612909565b908152602001604051809103902060006101000a81548173ffffffffffffffffffffffffffffffffffffffff021916908373ffffffffffffffffffffffffffffffffffffffff16021790555033600a84604051610ac09190612909565b908152602001604051809103902060006101000a81548173ffffffffffffffffffffffffffffffffffffffff021916908373ffffffffffffffffffffffffffffffffffffffff160217905550610b1684826115db565b610b2081846117b5565b8091505092915050565b6000806002600084815260200190815260200160002060009054906101000a900473ffffffffffffffffffffffffffffffffffffffff169050600073ffffffffffffffffffffffffffffffffffffffff168173ffffffffffffffffffffffffffffffffffffffff161415610bd3576040517f08c379a0000000000000000000000000000000000000000000000000000000008152600401610bca90612b48565b60405180910390fd5b80915050919050565b6000600a82604051610bee9190612909565b908152602001604051809103902060009054906101000a900473ffffffffffffffffffffffffffffffffffffffff169050919050565b60008073ffffffffffffffffffffffffffffffffffffffff168273ffffffffffffffffffffffffffffffffffffffff161415610c95576040517f08c379a0000000000000000000000000000000000000000000000000000000008152600401610c8c90612aa8565b60405180910390fd5b600360008373ffffffffffffffffffffffffffffffffffffffff1673ffffffffffffffffffffffffffffffffffffffff168152602001908152602001600020549050919050565b610ce4611829565b610cee60006118a7565b565b6000600760009054906101000a900473ffffffffffffffffffffffffffffffffffffffff16905090565b606060018054610d2990612e1e565b80601f0160208091040260200160405190810160405280929190818152602001828054610d5590612e1e565b8015610da25780601f10610d7757610100808354040283529160200191610da2565b820191906000526020600020905b815481529060010190602001808311610d8557829003601f168201915b5050505050905090565b60003373ffffffffffffffffffffffffffffffffffffffff16600983604051610dd59190612909565b908152602001604051809103902060009054906101000a900473ffffffffffffffffffffffffffffffffffffffff1673ffffffffffffffffffffffffffffffffffffffff16149050919050565b610e34610e2d611208565b838361196d565b5050565b610e49610e43611208565b836112c9565b610e88576040517f08c379a0000000000000000000000000000000000000000000000000000000008152600401610e7f90612b88565b60405180910390fd5b610e9484848484611ada565b50505050565b6060610ea582611b36565b9050919050565b610eb4611829565b6000610ec060086111af565b9050610ecc60086115c5565b610ed68382611c49565b610ee081836117b5565b82600983604051610ef19190612909565b908152602001604051809103902060006101000a81548173ffffffffffffffffffffffffffffffffffffffff021916908373ffffffffffffffffffffffffffffffffffffffff16021790555033600a83604051610f4e9190612909565b908152602001604051809103902060006101000a81548173ffffffffffffffffffffffffffffffffffffffff021916908373ffffffffffffffffffffffffffffffffffffffff160217905550505050565b600b8054610fac90612e1e565b80601f0160208091040260200160405190810160405280929190818152602001828054610fd890612e1e565b80156110255780601f10610ffa57610100808354040283529160200191611025565b820191906000526020600020905b81548152906001019060200180831161100857829003601f168201915b505050505081565b6000600560008473ffffffffffffffffffffffffffffffffffffffff1673ffffffffffffffffffffffffffffffffffffffff16815260200190815260200160002060008373ffffffffffffffffffffffffffffffffffffffff1673ffffffffffffffffffffffffffffffffffffffff16815260200190815260200160002060009054906101000a900460ff16905092915050565b6110c9611829565b600073ffffffffffffffffffffffffffffffffffffffff168173ffffffffffffffffffffffffffffffffffffffff161415611139576040517f08c379a000000000000000000000000000000000000000000000000000000000815260040161113090612a08565b60405180910390fd5b611142816118a7565b50565b60007f01ffc9a7000000000000000000000000000000000000000000000000000000007bffffffffffffffffffffffffffffffffffffffffffffffffffffffff1916827bffffffffffffffffffffffffffffffffffffffffffffffffffffffff1916149050919050565b600081600001549050919050565b6111c681611c67565b611205576040517f08c379a00000000000000000000000000000000000000000000000000000000081526004016111fc90612b48565b60405180910390fd5b50565b600033905090565b816004600083815260200190815260200160002060006101000a81548173ffffffffffffffffffffffffffffffffffffffff021916908373ffffffffffffffffffffffffffffffffffffffff160217905550808273ffffffffffffffffffffffffffffffffffffffff1661128383610b2a565b73ffffffffffffffffffffffffffffffffffffffff167f8c5be1e5ebec7d5bd14f71427d1e84f3dd0314c0f7b2291e5b200ac8c7c3b92560405160405180910390a45050565b6000806112d583610b2a565b90508073ffffffffffffffffffffffffffffffffffffffff168473ffffffffffffffffffffffffffffffffffffffff1614806113175750611316818561102d565b5b8061135557508373ffffffffffffffffffffffffffffffffffffffff1661133d846107a6565b73ffffffffffffffffffffffffffffffffffffffff16145b91505092915050565b8273ffffffffffffffffffffffffffffffffffffffff1661137e82610b2a565b73ffffffffffffffffffffffffffffffffffffffff16146113d4576040517f08c379a00000000000000000000000000000000000000000000000000000000081526004016113cb90612a28565b60405180910390fd5b600073ffffffffffffffffffffffffffffffffffffffff168273ffffffffffffffffffffffffffffffffffffffff161415611444576040517f08c379a000000000000000000000000000000000000000000000000000000000815260040161143b90612a68565b60405180910390fd5b61144f838383611cd3565b61145a600082611210565b6001600360008573ffffffffffffffffffffffffffffffffffffffff1673ffffffffffffffffffffffffffffffffffffffff16815260200190815260200160002060008282546114aa9190612d34565b925050819055506001600360008473ffffffffffffffffffffffffffffffffffffffff1673ffffffffffffffffffffffffffffffffffffffff16815260200190815260200160002060008282546115019190612cad565b92505081905550816002600083815260200190815260200160002060006101000a81548173ffffffffffffffffffffffffffffffffffffffff021916908373ffffffffffffffffffffffffffffffffffffffff160217905550808273ffffffffffffffffffffffffffffffffffffffff168473ffffffffffffffffffffffffffffffffffffffff167fddf252ad1be2c89b69c2b068fc378daa952ba7f163c4a11628f55a4df523b3ef60405160405180910390a46115c0838383611cd8565b505050565b6001816000016000828254019250508190555050565b600073ffffffffffffffffffffffffffffffffffffffff168273ffffffffffffffffffffffffffffffffffffffff16141561164b576040517f08c379a000000000000000000000000000000000000000000000000000000000815260040161164290612b08565b60405180910390fd5b61165481611c67565b15611694576040517f08c379a000000000000000000000000000000000000000000000000000000000815260040161168b90612a48565b60405180910390fd5b6116a060008383611cd3565b6001600360008473ffffffffffffffffffffffffffffffffffffffff1673ffffffffffffffffffffffffffffffffffffffff16815260200190815260200160002060008282546116f09190612cad565b92505081905550816002600083815260200190815260200160002060006101000a81548173ffffffffffffffffffffffffffffffffffffffff021916908373ffffffffffffffffffffffffffffffffffffffff160217905550808273ffffffffffffffffffffffffffffffffffffffff16600073ffffffffffffffffffffffffffffffffffffffff167fddf252ad1be2c89b69c2b068fc378daa952ba7f163c4a11628f55a4df523b3ef60405160405180910390a46117b160008383611cd8565b5050565b6117be82611c67565b6117fd576040517f08c379a00000000000000000000000000000000000000000000000000000000081526004016117f490612ac8565b60405180910390fd5b80600660008481526020019081526020016000209080519060200190611824929190612199565b505050565b611831611208565b73ffffffffffffffffffffffffffffffffffffffff1661184f610cf0565b73ffffffffffffffffffffffffffffffffffffffff16146118a5576040517f08c379a000000000000000000000000000000000000000000000000000000000815260040161189c90612b28565b60405180910390fd5b565b6000600760009054906101000a900473ffffffffffffffffffffffffffffffffffffffff16905081600760006101000a81548173ffffffffffffffffffffffffffffffffffffffff021916908373ffffffffffffffffffffffffffffffffffffffff1602179055508173ffffffffffffffffffffffffffffffffffffffff168173ffffffffffffffffffffffffffffffffffffffff167f8be0079c531659141344cd1fd0a4f28419497f9722a3daafe3b4186f6b6457e060405160405180910390a35050565b8173ffffffffffffffffffffffffffffffffffffffff168373ffffffffffffffffffffffffffffffffffffffff1614156119dc576040517f08c379a00000000000000000000000000000000000000000000000000000000081526004016119d390612a88565b60405180910390fd5b80600560008573ffffffffffffffffffffffffffffffffffffffff1673ffffffffffffffffffffffffffffffffffffffff16815260200190815260200160002060008473ffffffffffffffffffffffffffffffffffffffff1673ffffffffffffffffffffffffffffffffffffffff16815260200190815260200160002060006101000a81548160ff0219169083151502179055508173ffffffffffffffffffffffffffffffffffffffff168373ffffffffffffffffffffffffffffffffffffffff167f17307eab39ab6107e8899845ad3d59bd9653f200f220920489ca2b5937696c3183604051611acd91906129ab565b60405180910390a3505050565b611ae584848461135e565b611af184848484611cdd565b611b30576040517f08c379a0000000000000000000000000000000000000000000000000000000008152600401611b27906129e8565b60405180910390fd5b50505050565b6060611b41826111bd565b6000600660008481526020019081526020016000208054611b6190612e1e565b80601f0160208091040260200160405190810160405280929190818152602001828054611b8d90612e1e565b8015611bda5780601f10611baf57610100808354040283529160200191611bda565b820191906000526020600020905b815481529060010190602001808311611bbd57829003601f168201915b505050505090506000611beb611e74565b9050600081511415611c01578192505050611c44565b600082511115611c36578082604051602001611c1e929190612920565b60405160208183030381529060405292505050611c44565b611c3f84611f06565b925050505b919050565b611c63828260405180602001604052806000815250611f6e565b5050565b60008073ffffffffffffffffffffffffffffffffffffffff166002600084815260200190815260200160002060009054906101000a900473ffffffffffffffffffffffffffffffffffffffff1673ffffffffffffffffffffffffffffffffffffffff1614159050919050565b505050565b505050565b6000611cfe8473ffffffffffffffffffffffffffffffffffffffff16611fc9565b15611e67578373ffffffffffffffffffffffffffffffffffffffff1663150b7a02611d27611208565b8786866040518563ffffffff1660e01b8152600401611d49949392919061295f565b602060405180830381600087803b158015611d6357600080fd5b505af1925050508015611d9457506040513d601f19601f82011682018060405250810190611d919190612599565b60015b611e17573d8060008114611dc4576040519150601f19603f3d011682016040523d82523d6000602084013e611dc9565b606091505b50600081511415611e0f576040517f08c379a0000000000000000000000000000000000000000000000000000000008152600401611e06906129e8565b60405180910390fd5b805181602001fd5b63150b7a0260e01b7bffffffffffffffffffffffffffffffffffffffffffffffffffffffff1916817bffffffffffffffffffffffffffffffffffffffffffffffffffffffff191614915050611e6c565b600190505b949350505050565b6060600b8054611e8390612e1e565b80601f0160208091040260200160405190810160405280929190818152602001828054611eaf90612e1e565b8015611efc5780601f10611ed157610100808354040283529160200191611efc565b820191906000526020600020905b815481529060010190602001808311611edf57829003601f168201915b5050505050905090565b6060611f11826111bd565b6000611f1b611e74565b90506000815111611f3b5760405180602001604052806000815250611f66565b80611f4584611fec565b604051602001611f56929190612920565b6040516020818303038152906040525b915050919050565b611f7883836115db565b611f856000848484611cdd565b611fc4576040517f08c379a0000000000000000000000000000000000000000000000000000000008152600401611fbb906129e8565b60405180910390fd5b505050565b6000808273ffffffffffffffffffffffffffffffffffffffff163b119050919050565b60606000821415612034576040518060400160405280600181526020017f30000000000000000000000000000000000000000000000000000000000000008152509050612194565b600082905060005b6000821461206657808061204f90612e81565b915050600a8261205f9190612d03565b915061203c565b60008167ffffffffffffffff8111156120a8577f4e487b7100000000000000000000000000000000000000000000000000000000600052604160045260246000fd5b6040519080825280601f01601f1916602001820160405280156120da5781602001600182028036833780820191505090505b5090505b6000851461218d576001826120f39190612d34565b9150600a856121029190612eca565b603061210e9190612cad565b60f81b81838151811061214a577f4e487b7100000000000000000000000000000000000000000000000000000000600052603260045260246000fd5b60200101907effffffffffffffffffffffffffffffffffffffffffffffffffffffffffffff1916908160001a905350600a856121869190612d03565b94506120de565b8093505050505b919050565b8280546121a590612e1e565b90600052602060002090601f0160209004810192826121c7576000855561220e565b82601f106121e057805160ff191683800117855561220e565b8280016001018555821561220e579182015b8281111561220d5782518255916020019190600101906121f2565b5b50905061221b919061221f565b5090565b5b80821115612238576000816000905550600101612220565b5090565b600061224f61224a84612c08565b612be3565b90508281526020810184848401111561226757600080fd5b612272848285612ddc565b509392505050565b600061228d61228884612c39565b612be3565b9050828152602081018484840111156122a557600080fd5b6122b0848285612ddc565b509392505050565b6000813590506122c781613385565b92915050565b6000813590506122dc8161339c565b92915050565b6000813590506122f1816133b3565b92915050565b600081519050612306816133b3565b92915050565b600082601f83011261231d57600080fd5b813561232d84826020860161223c565b91505092915050565b600082601f83011261234757600080fd5b813561235784826020860161227a565b91505092915050565b60008135905061236f816133ca565b92915050565b60006020828403121561238757600080fd5b6000612395848285016122b8565b91505092915050565b600080604083850312156123b157600080fd5b60006123bf858286016122b8565b92505060206123d0858286016122b8565b9150509250929050565b6000806000606084860312156123ef57600080fd5b60006123fd868287016122b8565b935050602061240e868287016122b8565b925050604061241f86828701612360565b9150509250925092565b6000806000806080858703121561243f57600080fd5b600061244d878288016122b8565b945050602061245e878288016122b8565b935050604061246f87828801612360565b925050606085013567ffffffffffffffff81111561248c57600080fd5b6124988782880161230c565b91505092959194509250565b600080604083850312156124b757600080fd5b60006124c5858286016122b8565b92505060206124d6858286016122cd565b9150509250929050565b600080604083850312156124f357600080fd5b6000612501858286016122b8565b925050602083013567ffffffffffffffff81111561251e57600080fd5b61252a85828601612336565b9150509250929050565b6000806040838503121561254757600080fd5b6000612555858286016122b8565b925050602061256685828601612360565b9150509250929050565b60006020828403121561258257600080fd5b6000612590848285016122e2565b91505092915050565b6000602082840312156125ab57600080fd5b60006125b9848285016122f7565b91505092915050565b6000602082840312156125d457600080fd5b600082013567ffffffffffffffff8111156125ee57600080fd5b6125fa84828501612336565b91505092915050565b60006020828403121561261557600080fd5b600061262384828501612360565b91505092915050565b61263581612d68565b82525050565b61264481612d7a565b82525050565b600061265582612c6a565b61265f8185612c80565b935061266f818560208601612deb565b61267881612fb7565b840191505092915050565b600061268e82612c75565b6126988185612c91565b93506126a8818560208601612deb565b6126b181612fb7565b840191505092915050565b60006126c782612c75565b6126d18185612ca2565b93506126e1818560208601612deb565b80840191505092915050565b60006126fa603283612c91565b915061270582612fc8565b604082019050919050565b600061271d602683612c91565b915061272882613017565b604082019050919050565b6000612740602583612c91565b915061274b82613066565b604082019050919050565b6000612763601c83612c91565b915061276e826130b5565b602082019050919050565b6000612786602483612c91565b9150612791826130de565b604082019050919050565b60006127a9601983612c91565b91506127b48261312d565b602082019050919050565b60006127cc602983612c91565b91506127d782613156565b604082019050919050565b60006127ef602e83612c91565b91506127fa826131a5565b604082019050919050565b6000612812603e83612c91565b915061281d826131f4565b604082019050919050565b6000612835602083612c91565b915061284082613243565b602082019050919050565b6000612858602083612c91565b91506128638261326c565b602082019050919050565b600061287b601883612c91565b915061288682613295565b602082019050919050565b600061289e602183612c91565b91506128a9826132be565b604082019050919050565b60006128c1602e83612c91565b91506128cc8261330d565b604082019050919050565b60006128e4600f83612c91565b91506128ef8261335c565b602082019050919050565b61290381612dd2565b82525050565b600061291582846126bc565b915081905092915050565b600061292c82856126bc565b915061293882846126bc565b91508190509392505050565b6000602082019050612959600083018461262c565b92915050565b6000608082019050612974600083018761262c565b612981602083018661262c565b61298e60408301856128fa565b81810360608301526129a0818461264a565b905095945050505050565b60006020820190506129c0600083018461263b565b92915050565b600060208201905081810360008301526129e08184612683565b905092915050565b60006020820190508181036000830152612a01816126ed565b9050919050565b60006020820190508181036000830152612a2181612710565b9050919050565b60006020820190508181036000830152612a4181612733565b9050919050565b60006020820190508181036000830152612a6181612756565b9050919050565b60006020820190508181036000830152612a8181612779565b9050919050565b60006020820190508181036000830152612aa18161279c565b9050919050565b60006020820190508181036000830152612ac1816127bf565b9050919050565b60006020820190508181036000830152612ae1816127e2565b9050919050565b60006020820190508181036000830152612b0181612805565b9050919050565b60006020820190508181036000830152612b2181612828565b9050919050565b60006020820190508181036000830152612b418161284b565b9050919050565b60006020820190508181036000830152612b618161286e565b9050919050565b60006020820190508181036000830152612b8181612891565b9050919050565b60006020820190508181036000830152612ba1816128b4565b9050919050565b60006020820190508181036000830152612bc1816128d7565b9050919050565b6000602082019050612bdd60008301846128fa565b92915050565b6000612bed612bfe565b9050612bf98282612e50565b919050565b6000604051905090565b600067ffffffffffffffff821115612c2357612c22612f88565b5b612c2c82612fb7565b9050602081019050919050565b600067ffffffffffffffff821115612c5457612c53612f88565b5b612c5d82612fb7565b9050602081019050919050565b600081519050919050565b600081519050919050565b600082825260208201905092915050565b600082825260208201905092915050565b600081905092915050565b6000612cb882612dd2565b9150612cc383612dd2565b9250827fffffffffffffffffffffffffffffffffffffffffffffffffffffffffffffffff03821115612cf857612cf7612efb565b5b828201905092915050565b6000612d0e82612dd2565b9150612d1983612dd2565b925082612d2957612d28612f2a565b5b828204905092915050565b6000612d3f82612dd2565b9150612d4a83612dd2565b925082821015612d5d57612d5c612efb565b5b828203905092915050565b6000612d7382612db2565b9050919050565b60008115159050919050565b60007fffffffff0000000000000000000000000000000000000000000000000000000082169050919050565b600073ffffffffffffffffffffffffffffffffffffffff82169050919050565b6000819050919050565b82818337600083830152505050565b60005b83811015612e09578082015181840152602081019050612dee565b83811115612e18576000848401525b50505050565b60006002820490506001821680612e3657607f821691505b60208210811415612e4a57612e49612f59565b5b50919050565b612e5982612fb7565b810181811067ffffffffffffffff82111715612e7857612e77612f88565b5b80604052505050565b6000612e8c82612dd2565b91507fffffffffffffffffffffffffffffffffffffffffffffffffffffffffffffffff821415612ebf57612ebe612efb565b5b600182019050919050565b6000612ed582612dd2565b9150612ee083612dd2565b925082612ef057612eef612f2a565b5b828206905092915050565b7f4e487b7100000000000000000000000000000000000000000000000000000000600052601160045260246000fd5b7f4e487b7100000000000000000000000000000000000000000000000000000000600052601260045260246000fd5b7f4e487b7100000000000000000000000000000000000000000000000000000000600052602260045260246000fd5b7f4e487b7100000000000000000000000000000000000000000000000000000000600052604160045260246000fd5b6000601f19601f8301169050919050565b7f4552433732313a207472616e7366657220746f206e6f6e20455243373231526560008201527f63656976657220696d706c656d656e7465720000000000000000000000000000602082015250565b7f4f776e61626c653a206e6577206f776e657220697320746865207a65726f206160008201527f6464726573730000000000000000000000000000000000000000000000000000602082015250565b7f4552433732313a207472616e736665722066726f6d20696e636f72726563742060008201527f6f776e6572000000000000000000000000000000000000000000000000000000602082015250565b7f4552433732313a20746f6b656e20616c7265616479206d696e74656400000000600082015250565b7f4552433732313a207472616e7366657220746f20746865207a65726f2061646460008201527f7265737300000000000000000000000000000000000000000000000000000000602082015250565b7f4552433732313a20617070726f766520746f2063616c6c657200000000000000600082015250565b7f4552433732313a2061646472657373207a65726f206973206e6f74206120766160008201527f6c6964206f776e65720000000000000000000000000000000000000000000000602082015250565b7f45524337323155524953746f726167653a2055524920736574206f66206e6f6e60008201527f6578697374656e7420746f6b656e000000000000000000000000000000000000602082015250565b7f4552433732313a20617070726f76652063616c6c6572206973206e6f7420746f60008201527f6b656e206f776e6572206e6f7220617070726f76656420666f7220616c6c0000602082015250565b7f4552433732313a206d696e7420746f20746865207a65726f2061646472657373600082015250565b7f4f776e61626c653a2063616c6c6572206973206e6f7420746865206f776e6572600082015250565b7f4552433732313a20696e76616c696420746f6b656e2049440000000000000000600082015250565b7f4552433732313a20617070726f76616c20746f2063757272656e74206f776e6560008201527f7200000000000000000000000000000000000000000000000000000000000000602082015250565b7f4552433732313a2063616c6c6572206973206e6f7420746f6b656e206f776e6560008201527f72206e6f7220617070726f766564000000000000000000000000000000000000602082015250565b7f4e65656420746f20706179207570210000000000000000000000000000000000600082015250565b61338e81612d68565b811461339957600080fd5b50565b6133a581612d7a565b81146133b057600080fd5b50565b6133bc81612d86565b81146133c757600080fd5b50565b6133d381612dd2565b81146133de57600080fd5b5056fea26469706673582212204c067c0a1b262e287b8f103576bbafaf399fa97a26b93b6caa97538a6224a1e864736f6c63430008020033",
  "linkReferences": {},
  "deployedLinkReferences": {}
}